:100000000C9472000C948B000C948B000C948B005D
:100010000C948B000C948B000C948B000C948B0034
:100020000C948B000C948B000C948B000C948B0024
:100030000C948B000C948B000C948B000C948B0014
:100040000C948B000C948B000C948B000C948B0004
:100050000C948B000C948B000C948B000C948B00F4
:100060000C948B000C948B000C948B000C948B00E4
:100070000C948B000C948B000C948B000C948B00D4
:100080000C948B000C948B000C948B000C948B00C4
:100090000C948B000C948B000C948B000C948B00B4
:1000A0000C948B000C948B000C948B000C948B00A4
:1000B0000C948B000C948B000C948B000C948B0094
:1000C0000C948B000C948B000C948B000C948B0084
:1000D0000C948B000C948B000C948B000C948B0074
:1000E0000C948B0011241FBECFEFD1E2DEBFCDBF39
:1000F00000E00CBF12E0A0E0B2E0E6E9F2E000E0D0
:100100000BBF02C007900D92AC30B107D9F70E9427
:1001100011010C9449010C9400001092C50087E66F
:100120008093C40088E08093C10086E08093C20081
:1001300008959091C00095FFFCCF8093C60008956C
:10014000CF93DF93EC018991811103C0DF91CF91AF
:1001500008950E949900F7CF8F929F92AF92BF921D
:10016000CF92DF92EF92FF920F931F93CF93DF9383
:10017000CDB7DEB764970FB6F894DEBF0FBECDBF24
:100180009E012F5F3F4F790169012AE0822E912C59
:10019000A12CB12C86010E191F096115710581056D
:1001A0009105C1F40E0D1F1D0E151F05F1F4649687
:1001B0000FB6F894DEBF0FBECDBFDF91CF911F9178
:1001C0000F91FF90EF90DF90CF90BF90AF909F90F6
:1001D0008F900895A50194010E942701605DF601AA
:1001E00061936F01B901CA01D5CFF80162918F0106
:1001F000062E000C770B880B990B0E94AC00D4CF15
:1002000021E030E08230910514F4C9010895A9017C
:10021000489F9001499F300D589F300D1124019740
:10022000F1CF0E948D008AE090E00E940001EC0175
:1002300080E092E00E94A000BE01DD0F880B990BC8
:100240000E94AC0089E092E00E94A000FFCFA1E2F2
:100250001A2EAA1BBB1BFD010DC0AA1FBB1FEE1F40
:10026000FF1FA217B307E407F50720F0A21BB30B8B
:10027000E40BF50B661F771F881F991F1A9469F707
:1002800060957095809590959B01AC01BD01CF0163
:060290000895F894FFCF71
:0C029600526573756C743A20000A000079
:00000001FF
