:100000000C94BC000C94D5000C94D5000C94D50035
:100010000C94D5000C94D5000C94D5000C94D5000C
:100020000C94D5000C94D5000C94D5000C94D500FC
:100030000C94D5000C94D5000C94D5000C94D500EC
:100040000C94D5000C94D5000C94D5000C94D500DC
:100050000C94D5000C94D5000C94D5000C94D500CC
:100060000C94D5000C94D5000C94D5000C94D500BC
:100070000C94D5000C94D5000C94D5000C94D500AC
:100080000C94D5000C94D5000C94D5000C94D5009C
:100090000C94D5000C94D5000C94D5000C94D5008C
:1000A0000C94D5000C94D5000C94D5000C94D5007C
:1000B0000C94D5000C94D5000C94D5000C94D5006C
:1000C0000C94D5000C94D5000C94D5000C94D5005C
:1000D0000C94D5000C94D5000C94D5000C94D5004C
:1000E0000C94D5000C94E8010C941B020C94930121
:1000F0000C948E010C94C0010C945B020C94890149
:100100000C94DC010C94C5010C94D7010C942A02C8
:100110000C94AF010C947D010C94F8010C944A02EC
:100120000C9445020C9483010C9425020C94F2016A
:100130000C94CB010C9430020C9442020C949E015E
:100140000C94D1010C9436020C94ED010C9499019D
:100150000C94A9010C94FD010C94A4010C943C0294
:100160000C9455020C94B5010C9450020C941F028F
:100170000C94BA010C94600211241FBECFEFD1E29F
:10018000DEBFCDBF00E00CBF13E0A0E0B2E0E2E7CD
:10019000F8E000E00BBF02C007900D92A031B1075C
:1001A000D9F70E944C030C9437040C940000279A52
:1001B00008952F9A30E020E02817390709F40895B0
:1001C0004FEF53EC69E0415050406040E1F700C010
:1001D00000002F5F3F4FF0CF2F9830E020E028172E
:1001E000390709F408954FEF53EC69E0415050404E
:1001F0006040E1F700C000002F5F3F4FF0CF2F9A23
:1002000030E020E02817390739F42F9890E080E09B
:100210008617970769F408954FEF53ECE9E04150D2
:100220005040E040E1F700C000002F5F3F4FEACFB1
:100230002FEF33EC49E0215030404040E1F700C05F
:1002400000000196E5CFCF92DF92EF92FF92FC0182
:100250006C01990FEE08FF0861E070E080E090E02B
:10026000E230F1052CF4FF90EF90DF90CF900895ED
:1002700031979B01AC01C701B6010E94B10321E097
:10028000C21AD108E108F108EBCF80538B3208F095
:10029000D2C0E82F880FFF0B8827EE5AFE4F8F4FF2
:1002A0000C94E303DC01ED01F201FD011F022A02BF
:1002B00045024A02550260021B021B021B021B027E
:1002C0001B021B021B02B50150027D019901420273
:1002D0008E01A40130023C02F801AF019301D1016B
:1002E0008901E8019E01A90183013602D701C001FD
:1002F0002502CB01BA01C5015B0261E070E083E039
:1003000090E00E94FF0061E070E081E090E00E94D8
:10031000FF0061E070E083E090E0B2C061E070E077
:1003200081E090E0EECF61E070E081E090E00E943B
:10033000FF0061E070E083E090E09CC061E070E06D
:1003400081E090E00E94FF0061E070E083E090E0D7
:10035000DECF61E070E083E090E00E94FF0061E0AA
:1003600070E083E090E00E94FF0061E070E081E0D7
:1003700090E01BC061E070E083E090E00E94FF002D
:1003800061E070E081E090E0EECF61E070E083E05A
:1003900090E00E94FF0061E070E081E090E00E9448
:1003A000FF0061E070E083E090E00E94FF0083E0E6
:1003B00090E00E94D9003FC061E070E083E090E0EF
:1003C0000E94FF0061E070E083E090E00E94FF0087
:1003D00061E070E083E090E0E2CF61E070E081E016
:1003E00090E0EECF61E070E081E090E00E94FF00DD
:1003F00061E070E081E090E0E9CF61E070E081E0F1
:1004000090E00E94FF0061E070E081E090E00E94D7
:10041000FF0061E070E081E090E00E94FF0061E099
:1004200070E083E090E00E94FF0061E070E083E014
:1004300090E00E94FF0090E080E00C94EC0061E00E
:1004400070E081E090E00E94FF0061E070E081E0F8
:1004500090E094CF61E070E081E090E00E94FF00C6
:1004600061E070E081E090E00E94FF0061E070E0F8
:1004700081E090E00E94FF0061E070E081E090E0A8
:100480000E94FF0081E090E094CF61E070E083E0A3
:1004900090E0E4CF61E070E083E090E00E94FF0034
:1004A00061E070E083E090E0DFCF61E070E083E046
:1004B00090E00E94FF0061E070E083E090E037CFC1
:1004C00061E070E083E090E00E94FF0061E070E096
:1004D00083E090E037CF0F931F93CF93DF93EC012E
:1004E0008881811105C0DF91CF911F910F910895EF
:1004F000082E000C990B0E942304892B91F087E0B1
:1005000090E00E94EC008E010F5F1F4FE8010F5F2B
:100510001F4F8881082E000C990B0E942304892B01
:10052000A9F78E010F5F1F4F88810E94450183E06C
:1005300090E00E94EC00E801D3CF1092C50087E65E
:100540008093C40088E18093C10086E08093C2005C
:1005500008958091C00087FFFCCF8091C600089568
:10056000EF92FF920F931F93CF93DF937C01EB01E8
:100570008B01C8018C1B9D0B8E159F0554F0CE0D71
:10058000DF1D1882DF91CF911F910F91FF90EF90A7
:1005900008950E94A902F80181938F01EACF9091FA
:1005A000C00095FFFCCF8093C6000895CF93DF93E2
:1005B000EC018991811103C0DF91CF9108950E94D0
:1005C000CF02F7CF8F929F92AF92BF92CF92DF92DE
:1005D000EF92FF920F931F93CF93DF93CDB7DEB7C8
:1005E00064970FB6F894DEBF0FBECDBF61157105DD
:1005F00081059105A9F480E364960FB6F894DEBFF7
:100600000FBECDBFDF91CF911F910F91FF90EF9063
:10061000DF90CF90BF90AF909F908F900C94CF02BF
:100620009E012F5F3F4F790169012AE0822E912CB4
:10063000A12CB12C86010E191F09A50194010E945D
:10064000C103605DF60161936F01B901CA016115D3
:1006500071058105910571F70F5F1F4F0E0D1F1D6D
:100660000E151F0599F464960FB6F894DEBF0FBE01
:10067000CDBFDF91CF911F910F91FF90EF90DF9051
:10068000CF90BF90AF909F908F900895F801829186
:100690008F010E94CF02E4CFCF93DF93CDB7DEB7B7
:1006A00065970FB6F894DEBF0FBECDBF0E949D02C6
:1006B0000E94D70080E092E00E94D6020E94A90228
:1006C0008E32B1F18437E9F0813209F045C080E91A
:1006D00092E00E94D602BE016F5F7F4F82E090E001
:1006E0000E94B002CE0101960E9405048C018FEA9F
:1006F00092E00E94D602C8010E9423010E94E202F9
:1007000012C08FE592E00E94D6026AE070E085E0B8
:1007100090E00E94FF0085E090E00E94D90090E008
:1007200080E00E94EC008BE093E00E94D602C2CFF2
:100730008AEB92E00E94D602BE016F5F7F4F84E198
:1007400090E00E94B00285ED92E00E94D602CE01B8
:1007500001960E946B02E7CF87EF92E00E94D602DB
:10076000E2CFDB018F939F930E94EB03BF91AF9188
:10077000A29F800D911DA39F900DB29F900D1124FB
:100780000895A1E21A2EAA1BBB1BFD010DC0AA1FD2
:10079000BB1FEE1FFF1FA217B307E407F50720F0EA
:1007A000A21BB30BE40BF50B661F771F881F991F65
:1007B0001A9469F760957095809590959B01AC01AE
:1007C000BD01CF010895EE0FFF1F881F8BBF07905B
:1007D000F691E02D19940E94F603A59F900DB49F09
:1007E000900DA49F800D911D11240895A29FB0012A
:1007F000B39FC001A39F700D811D1124911DB29F55
:10080000700D811D1124911D0895FC0188279927E1
:10081000E89421912032E9F3293010F02E30C8F30A
:100820002B3241F02D3239F4689404C00E942C041C
:10083000820F911D219120532A30C0F31EF4909510
:1008400081959F4F089591110C943404803219F0D2
:1008500089508550C8F708957AE0979F902D879F1B
:10086000802D910D11240895992788270895F894D3
:02087000FFCFB8
:100872002A2A2A2A2A2A2A2A2A2A2A2A2A2A2A2AD6
:100882002A2A2A2A2A2A2A0D0A2A2057656C636FE5
:100892006D6520746F2052414441534D4952202AC4
:1008A2000D0A2A2A2A2A2A2A2A2A2A2A2A2A2A2AE3
:1008B2002A2A2A2A2A2A2A2A2A0D0A5768617420F1
:1008C200646F20796F75207365656B3F0D0A005464
:1008D200657374696E672031207365636F6E64207F
:1008E2006C69676874206F6E2C2032207365636FA9
:1008F2006E64206F66662C2031206F6E2E2E2E00C5
:10090200464143544F5249414C0D0A456E7465723B
:1009120020796F7572206E756D6265723A20000DD6
:100922000A526573756C743A20004D4F5253450D4F
:100932000A456E74657220796F75722070687261F3
:1009420073653A20000D0A57617463682074686504
:10095200204C454420666F7220796F7572206D6558
:1009620073736167652100496E76616C6964206109
:100972006374696F6E2E2E2E0D0A000D0A0D0A0089
:00000001FF
