:100000000C9472000C948B000C948B000C948B005D
:100010000C948B000C948B000C948B000C948B0034
:100020000C948B000C948B000C948B000C948B0024
:100030000C948B000C948B000C948B000C948B0014
:100040000C948B000C948B000C948B000C948B0004
:100050000C948B000C948B000C948B000C948B00F4
:100060000C948B000C948B000C948B000C948B00E4
:100070000C948B000C948B000C948B000C948B00D4
:100080000C948B000C948B000C948B000C948B00C4
:100090000C948B000C948B000C948B000C948B00B4
:1000A0000C948B000C948B000C948B000C948B00A4
:1000B0000C948B000C948B000C948B000C948B0094
:1000C0000C948B000C948B000C948B000C948B0084
:1000D0000C948B000C948B000C948B000C948B0074
:1000E0000C948B0011241FBECFEFD1E2DEBFCDBF39
:1000F00000E00CBF12E0A0E0B2E0E6E3F4E000E0D4
:100100000BBF02C007900D92AE39B107D9F70E941C
:100110005E010C9419020C9400001092C50087E651
:100120008093C40088E18093C10086E08093C20080
:1001300008958091C00087FFFCCF8091C60008958C
:10014000EF92FF920F931F93CF93DF937C01EB010C
:100150008B01C8018C1B9D0B8E159F0554F0CE0D95
:10016000DF1D1882DF91CF911F910F91FF90EF90CB
:1001700008950E949900F80181938F01EACF909130
:10018000C00095FFFCCF8093C6000895CF93DF9306
:10019000EC018991811103C0DF91CF9108950E94F4
:1001A000BF00F7CF8F929F92AF92BF92CF92DF9214
:1001B000EF92FF920F931F93CF93DF93CDB7DEB7EC
:1001C00064970FB6F894DEBF0FBECDBF6115710501
:1001D00081059105A9F480E364960FB6F894DEBF1B
:1001E0000FBECDBFDF91CF911F910F91FF90EF9088
:1001F000DF90CF90BF90AF909F908F900C94BF00F6
:100200009E012F5F3F4F790169012AE0822E912CD8
:10021000A12CB12C86010E191F09A50194010E9481
:10022000B701605DF60161936F01B901CA01611503
:1002300071058105910571F70F5F1F4F0E0D1F1D91
:100240000E151F0599F464960FB6F894DEBF0FBE25
:10025000CDBFDF91CF911F910F91FF90EF90DF9075
:10026000CF90BF90AF909F908F900895F8018291AA
:100270008F010E94BF00E4CFCF92DF92EF92FF92F6
:10028000FC016C01990FEE08FF0861E070E080E06E
:1002900090E0E230F1052CF4FF90EF90DF90CF90EA
:1002A000089531979B01AC01C701B6010E94A701D7
:1002B00021E0C21AD108E108F108EBCFCF93DF9318
:1002C00000D0CDB7DEB70E948D0080E092E00E94A2
:1002D000C6000E9499008136A9F58FE592E00E9440
:1002E000C600BE016F5F7F4F82E090E00E94A000D9
:1002F000CE0101960E94F3018C018EE792E00E94EC
:10030000C6006801012E000CEE08FF0861E070E0F5
:1003100080E090E0023011053CF40E94D2008AE9AE
:1003200092E00E94C600D1CF015011099B01AC019F
:10033000C701B6010E94A70121E0C21AD108E10855
:10034000F108E8CF89E892E00E94C600E8CFDB011F
:100350008F939F930E94D901BF91AF91A29F800D6F
:10036000911DA39F900DB29F900D11240895A1E2BD
:100370001A2EAA1BBB1BFD010DC0AA1FBB1FEE1F1F
:10038000FF1FA217B307E407F50720F0A21BB30B6A
:10039000E40BF50B661F771F881F991F1A9469F7E6
:1003A00060957095809590959B01AC01BD01CF0142
:1003B00008950E94E401A59F900DB49F900DA49F05
:1003C000800D911D11240895A29FB001B39FC0011B
:1003D000A39F700D811D1124911DB29F700D811D71
:1003E0001124911D0895FC0188279927E8942191F3
:1003F0002032E9F3293010F02E30C8F32B3241F0CF
:100400002D3239F4689404C00E941102820F911DAC
:10041000219120532A30C0F31EF4909581959F4F6F
:1004200008957AE0979F902D879F802D910D11243C
:060430000895F894FFCFCF
:100436002A2A2A2A2A2A2A2A2A2A2A2A2A2A2A2A16
:100446002A2A2A2A2A2A2A0D0A2A2057656C636F25
:100456006D6520746F2052414441534D4952202A04
:100466000D0A2A2A2A2A2A2A2A2A2A2A2A2A2A2A23
:100476002A2A2A2A2A2A2A2A2A0D0A576861742031
:10048600646F20796F75207365656B3F0D0A0046B2
:100496004143544F5249414C0D0A456E74657220D2
:1004A600796F7572206E756D6265723A20000D0A5D
:1004B600526573756C743A2000496E76616C696496
:0E04C60020616374696F6E2E2E2E0D0A0000E9
:00000001FF
