:100000000C9472000C948B000C948B000C948B005D
:100010000C948B000C948B000C948B000C948B0034
:100020000C948B000C948B000C948B000C948B0024
:100030000C948B000C948B000C948B000C948B0014
:100040000C948B000C948B000C948B000C948B0004
:100050000C948B000C948B000C948B000C948B00F4
:100060000C948B000C948B000C948B000C948B00E4
:100070000C948B000C948B000C948B000C948B00D4
:100080000C948B000C948B000C948B000C948B00C4
:100090000C948B000C948B000C948B000C948B00B4
:1000A0000C948B000C948B000C948B000C948B00A4
:1000B0000C948B000C948B000C948B000C948B0094
:1000C0000C948B000C948B000C948B000C948B0084
:1000D0000C948B000C948B000C948B000C948B0074
:1000E0000C948B0011241FBECFEFD1E2DEBFCDBF39
:1000F00000E00CBF12E0A0E0B2E0E2E6F3E000E0D6
:100100000BBF02C007900D92AC30B107D9F70E9427
:1001100038010C94AF010C9400001092C50087E6E2
:100120008093C40088E08093C10086E08093C20081
:1001300008959091C00095FFFCCF8093C60008956C
:10014000CF93DF93EC018991811103C0DF91CF91AF
:1001500008950E949900F7CF8F929F92AF92BF921D
:10016000CF92DF92EF92FF920F931F93CF93DF9383
:10017000CDB7DEB764970FB6F894DEBF0FBECDBF24
:100180006115710581059105A9F480E364960FB6A8
:10019000F894DEBF0FBECDBFDF91CF911F910F91BD
:1001A000FF90EF90DF90CF90BF90AF909F908F9097
:1001B0000C9499009E012F5F3F4F790169012AE05D
:1001C000822E912CA12CB12C86010E191F09A5019C
:1001D00094010E947301605DF60161936F01B901A2
:1001E000CA01611571058105910571F70F5F1F4FF8
:1001F0000E0D1F1D0E151F0599F464960FB6F89489
:10020000DEBF0FBECDBFDF91CF911F910F91FF9049
:10021000EF90DF90CF90BF90AF909F908F90089518
:10022000F80182918F010E949900E4CFCF92DF9272
:10023000EF92FF92FC016C01990FEE08FF0861E05C
:1002400070E080E090E0E230F1052CF4FF90EF9058
:10025000DF90CF90089531979B01AC01C701B601A3
:100260000E94630121E0C21AD108E108F108EBCF36
:100270000E948D008AE0C82ED12CE12CF12C812C1B
:10028000912C54018394A5019401C701B6010E94E9
:1002900063014B015C0181E0C81AD108E108F10853
:1002A00081E0C816D104E104F10469F780E092E02E
:1002B0000E94A000C501B4010E94AC0089E092E058
:1002C0000E94A000FFCFDB018F939F930E949501B6
:1002D000BF91AF91A29F800D911DA39F900DB29FE2
:1002E000900D11240895A1E21A2EAA1BBB1BFD013B
:1002F0000DC0AA1FBB1FEE1FFF1FA217B307E40705
:10030000F50720F0A21BB30BE40BF50B661F771F5C
:10031000881F991F1A9469F760957095809590953C
:100320009B01AC01BD01CF0108950E94A001A59FD2
:10033000900DB49F900DA49F800D911D11240895E0
:10034000A29FB001B39FC001A39F700D811D112416
:10035000911DB29F700D811D1124911D0895F89477
:02036000FFCFCD
:0C036200526573756C743A20000D0A009F
:00000001FF
